{
  "_format": "hh-sol-artifact-1",
  "contractName": "Raffle",
  "sourceName": "contracts/Raffle.sol",
  "abi": [
    {
      "inputs": [
        {
          "internalType": "address",
          "name": "vrfCoordinatorV2",
          "type": "address"
        },
        {
          "internalType": "uint256",
          "name": "entranceFee",
          "type": "uint256"
        },
        {
          "internalType": "bytes32",
          "name": "gasLane",
          "type": "bytes32"
        },
        {
          "internalType": "uint64",
          "name": "subscriptionId",
          "type": "uint64"
        },
        {
          "internalType": "uint32",
          "name": "callbackGasLimit",
          "type": "uint32"
        },
        {
          "internalType": "uint256",
          "name": "interval",
          "type": "uint256"
        }
      ],
      "stateMutability": "nonpayable",
      "type": "constructor"
    },
    {
      "inputs": [
        {
          "internalType": "address",
          "name": "have",
          "type": "address"
        },
        {
          "internalType": "address",
          "name": "want",
          "type": "address"
        }
      ],
      "name": "OnlyCoordinatorCanFulfill",
      "type": "error"
    },
    {
      "inputs": [],
      "name": "Raffle__NotEnoughETHEntered",
      "type": "error"
    },
    {
      "inputs": [],
      "name": "Raffle__NotOpen",
      "type": "error"
    },
    {
      "inputs": [],
      "name": "Raffle__TransferFailed",
      "type": "error"
    },
    {
      "inputs": [
        {
          "internalType": "uint256",
          "name": "currentBalance",
          "type": "uint256"
        },
        {
          "internalType": "uint256",
          "name": "numPlayers",
          "type": "uint256"
        },
        {
          "internalType": "uint256",
          "name": "raffleState",
          "type": "uint256"
        }
      ],
      "name": "Raffle__UpkeepNotNeeded",
      "type": "error"
    },
    {
      "anonymous": false,
      "inputs": [
        {
          "indexed": true,
          "internalType": "address",
          "name": "player",
          "type": "address"
        }
      ],
      "name": "RaffleEnter",
      "type": "event"
    },
    {
      "anonymous": false,
      "inputs": [
        {
          "indexed": true,
          "internalType": "uint256",
          "name": "requestId",
          "type": "uint256"
        }
      ],
      "name": "RequestedRaffleWinner",
      "type": "event"
    },
    {
      "anonymous": false,
      "inputs": [
        {
          "indexed": true,
          "internalType": "address",
          "name": "winner",
          "type": "address"
        }
      ],
      "name": "WinnerPicked",
      "type": "event"
    },
    {
      "inputs": [
        {
          "internalType": "bytes",
          "name": "",
          "type": "bytes"
        }
      ],
      "name": "checkUpkeep",
      "outputs": [
        {
          "internalType": "bool",
          "name": "upkeepNeeded",
          "type": "bool"
        },
        {
          "internalType": "bytes",
          "name": "",
          "type": "bytes"
        }
      ],
      "stateMutability": "nonpayable",
      "type": "function"
    },
    {
      "inputs": [],
      "name": "enterRaffle",
      "outputs": [],
      "stateMutability": "payable",
      "type": "function"
    },
    {
      "inputs": [],
      "name": "getEntranceFee",
      "outputs": [
        {
          "internalType": "uint256",
          "name": "",
          "type": "uint256"
        }
      ],
      "stateMutability": "view",
      "type": "function"
    },
    {
      "inputs": [],
      "name": "getLatestTimestamp",
      "outputs": [
        {
          "internalType": "uint256",
          "name": "",
          "type": "uint256"
        }
      ],
      "stateMutability": "view",
      "type": "function"
    },
    {
      "inputs": [],
      "name": "getNumWords",
      "outputs": [
        {
          "internalType": "uint256",
          "name": "",
          "type": "uint256"
        }
      ],
      "stateMutability": "pure",
      "type": "function"
    },
    {
      "inputs": [],
      "name": "getNumberOfPlayers",
      "outputs": [
        {
          "internalType": "uint256",
          "name": "",
          "type": "uint256"
        }
      ],
      "stateMutability": "view",
      "type": "function"
    },
    {
      "inputs": [
        {
          "internalType": "uint256",
          "name": "index",
          "type": "uint256"
        }
      ],
      "name": "getPlayer",
      "outputs": [
        {
          "internalType": "address",
          "name": "",
          "type": "address"
        }
      ],
      "stateMutability": "view",
      "type": "function"
    },
    {
      "inputs": [],
      "name": "getRaffleState",
      "outputs": [
        {
          "internalType": "enum Raffle.RaffleState",
          "name": "",
          "type": "uint8"
        }
      ],
      "stateMutability": "view",
      "type": "function"
    },
    {
      "inputs": [],
      "name": "getRecentWinner",
      "outputs": [
        {
          "internalType": "address",
          "name": "",
          "type": "address"
        }
      ],
      "stateMutability": "view",
      "type": "function"
    },
    {
      "inputs": [],
      "name": "getRequestConfirmations",
      "outputs": [
        {
          "internalType": "uint256",
          "name": "",
          "type": "uint256"
        }
      ],
      "stateMutability": "pure",
      "type": "function"
    },
    {
      "inputs": [
        {
          "internalType": "bytes",
          "name": "",
          "type": "bytes"
        }
      ],
      "name": "performUpkeep",
      "outputs": [],
      "stateMutability": "nonpayable",
      "type": "function"
    },
    {
      "inputs": [
        {
          "internalType": "uint256",
          "name": "requestId",
          "type": "uint256"
        },
        {
          "internalType": "uint256[]",
          "name": "randomWords",
          "type": "uint256[]"
        }
      ],
      "name": "rawFulfillRandomWords",
      "outputs": [],
      "stateMutability": "nonpayable",
      "type": "function"
    }
  ],
  "bytecode": "0x6101606040523480156200001257600080fd5b50604051620017c7380380620017c78339818101604052810190620000389190620001ad565b858073ffffffffffffffffffffffffffffffffffffffff1660808173ffffffffffffffffffffffffffffffffffffffff1660601b81525050508460a081815250508573ffffffffffffffffffffffffffffffffffffffff1660c08173ffffffffffffffffffffffffffffffffffffffff1660601b815250508360e081815250508267ffffffffffffffff166101008167ffffffffffffffff1660c01b815250508163ffffffff166101208163ffffffff1660e01b815250506000600160146101000a81548160ff02191690836001811115620001195762000118620002b5565b5b0217905550426002819055508061014081815250505050505050506200036b565b6000815190506200014b81620002e9565b92915050565b600081519050620001628162000303565b92915050565b60008151905062000179816200031d565b92915050565b600081519050620001908162000337565b92915050565b600081519050620001a78162000351565b92915050565b60008060008060008060c08789031215620001cd57620001cc620002e4565b5b6000620001dd89828a016200013a565b9650506020620001f089828a0162000168565b95505060406200020389828a0162000151565b94505060606200021689828a0162000196565b93505060806200022989828a016200017f565b92505060a06200023c89828a0162000168565b9150509295509295509295565b6000620002568262000267565b9050919050565b6000819050919050565b600073ffffffffffffffffffffffffffffffffffffffff82169050919050565b6000819050919050565b600063ffffffff82169050919050565b600067ffffffffffffffff82169050919050565b7f4e487b7100000000000000000000000000000000000000000000000000000000600052602160045260246000fd5b600080fd5b620002f48162000249565b81146200030057600080fd5b50565b6200030e816200025d565b81146200031a57600080fd5b50565b620003288162000287565b81146200033457600080fd5b50565b620003428162000291565b81146200034e57600080fd5b50565b6200035c81620002a1565b81146200036857600080fd5b50565b60805160601c60a05160c05160601c60e0516101005160c01c6101205160e01c610140516113e7620003e060003960006107a6015260006106550152600061063201526000610611015260006105d50152600081816102b401526103b10152600081816102f1015261034501526113e76000f3fe6080604052600436106100a75760003560e01c806353a2c19a1161006457806353a2c19a146101895780635f1b0fd8146101b45780636e04ff0d146101df578063e55ae4e81461021d578063f43b52cb1461025a578063fd6673f514610285576100a7565b806309bc33a7146100ac578063115cbaf5146100d75780631fe543e3146101025780632cfcc5391461012b5780634585e33b14610135578063473f1ddc1461015e575b600080fd5b3480156100b857600080fd5b506100c16102b0565b6040516100ce9190610fed565b60405180910390f35b3480156100e357600080fd5b506100ec6102d8565b6040516100f99190610fd2565b60405180910390f35b34801561010e57600080fd5b5061012960048036038101906101249190610dc6565b6102ef565b005b6101336103af565b005b34801561014157600080fd5b5061015c60048036038101906101579190610cd6565b61051e565b005b34801561016a57600080fd5b5061017361071d565b6040516101809190610f0b565b60405180910390f35b34801561019557600080fd5b5061019e610747565b6040516101ab9190610fed565b60405180910390f35b3480156101c057600080fd5b506101c9610756565b6040516101d69190610fed565b60405180910390f35b3480156101eb57600080fd5b5061020660048036038101906102019190610d23565b610763565b604051610214929190610f4f565b60405180910390f35b34801561022957600080fd5b50610244600480360381019061023f9190610d6c565b610813565b6040516102519190610f0b565b60405180910390f35b34801561026657600080fd5b5061026f61085a565b60405161027c9190610fed565b60405180910390f35b34801561029157600080fd5b5061029a610864565b6040516102a79190610fed565b60405180910390f35b60007f0000000000000000000000000000000000000000000000000000000000000000905090565b6000600160149054906101000a900460ff16905090565b7f000000000000000000000000000000000000000000000000000000000000000073ffffffffffffffffffffffffffffffffffffffff163373ffffffffffffffffffffffffffffffffffffffff16146103a157337f00000000000000000000000000000000000000000000000000000000000000006040517f1cf993f4000000000000000000000000000000000000000000000000000000008152600401610398929190610f26565b60405180910390fd5b6103ab8282610870565b5050565b7f0000000000000000000000000000000000000000000000000000000000000000341015610409576040517fbd4e069500000000000000000000000000000000000000000000000000000000815260040160405180910390fd5b6000600181111561041d5761041c6112c7565b5b600160149054906101000a900460ff16600181111561043f5761043e6112c7565b5b14610476576040517f1425571c00000000000000000000000000000000000000000000000000000000815260040160405180910390fd5b6000339080600181540180825580915050600190039060005260206000200160009091909190916101000a81548173ffffffffffffffffffffffffffffffffffffffff021916908373ffffffffffffffffffffffffffffffffffffffff1602179055503373ffffffffffffffffffffffffffffffffffffffff167f0805e1d667bddb8a95f0f09880cf94f403fb596ce79928d9f29b74203ba284d460405160405180910390a2565b600061053860405180602001604052806000815250610763565b509050806105a75747600080549050600160149054906101000a900460ff166001811115610569576105686112c7565b5b6040517f584327aa00000000000000000000000000000000000000000000000000000000815260040161059e93929190611008565b60405180910390fd5b60018060146101000a81548160ff021916908360018111156105cc576105cb6112c7565b5b021790555060007f000000000000000000000000000000000000000000000000000000000000000073ffffffffffffffffffffffffffffffffffffffff16635d3b1d307f00000000000000000000000000000000000000000000000000000000000000007f000000000000000000000000000000000000000000000000000000000000000060037f000000000000000000000000000000000000000000000000000000000000000060016040518663ffffffff1660e01b8152600401610696959493929190610f7f565b602060405180830381600087803b1580156106b057600080fd5b505af11580156106c4573d6000803e3d6000fd5b505050506040513d601f19601f820116820180604052508101906106e89190610d99565b9050807fcd6e45c8998311cab7e9d4385596cac867e20a0587194b954fa3a731c93ce78b60405160405180910390a250505050565b6000600160009054906101000a900473ffffffffffffffffffffffffffffffffffffffff16905090565b6000600163ffffffff16905090565b6000600361ffff16905090565b600060606000600160149054906101000a900460ff16600181111561078b5761078a6112c7565b5b6000600181111561079f5761079e6112c7565b5b14905060007f0000000000000000000000000000000000000000000000000000000000000000600254426107d391906110e8565b1190506000806000805490501190506000804711905060008480156107f55750835b80156107fe5750825b80156108075750815b90505050505050915091565b6000808281548110610828576108276112f6565b5b9060005260206000200160009054906101000a900473ffffffffffffffffffffffffffffffffffffffff169050919050565b6000600254905090565b60008080549050905090565b600080805490508260008151811061088b5761088a6112f6565b5b602002602001015161089d9190611238565b905060008082815481106108b4576108b36112f6565b5b9060005260206000200160009054906101000a900473ffffffffffffffffffffffffffffffffffffffff16905080600160006101000a81548173ffffffffffffffffffffffffffffffffffffffff021916908373ffffffffffffffffffffffffffffffffffffffff1602179055506000600160146101000a81548160ff02191690836001811115610948576109476112c7565b5b0217905550600067ffffffffffffffff81111561096857610967611325565b5b6040519080825280602002602001820160405280156109965781602001602082028036833780820191505090505b50600090805190602001906109ac929190610aa1565b504260028190555060008173ffffffffffffffffffffffffffffffffffffffff16476040516109da90610ef6565b60006040518083038185875af1925050503d8060008114610a17576040519150601f19603f3d011682016040523d82523d6000602084013e610a1c565b606091505b5050905080610a57576040517fa1d04b3900000000000000000000000000000000000000000000000000000000815260040160405180910390fd5b8173ffffffffffffffffffffffffffffffffffffffff167f5b690ec4a06fe979403046eaeea5b3ce38524683c3001f662c8b5a829632f7df60405160405180910390a25050505050565b828054828255906000526020600020908101928215610b1a579160200282015b82811115610b195782518260006101000a81548173ffffffffffffffffffffffffffffffffffffffff021916908373ffffffffffffffffffffffffffffffffffffffff16021790555091602001919060010190610ac1565b5b509050610b279190610b2b565b5090565b5b80821115610b44576000816000905550600101610b2c565b5090565b6000610b5b610b5684611064565b61103f565b90508083825260208201905082856020860282011115610b7e57610b7d61135e565b5b60005b85811015610bae5781610b948882610cac565b845260208401935060208301925050600181019050610b81565b5050509392505050565b6000610bcb610bc684611090565b61103f565b905082815260208101848484011115610be757610be6611363565b5b610bf28482856111c5565b509392505050565b600082601f830112610c0f57610c0e611359565b5b8135610c1f848260208601610b48565b91505092915050565b60008083601f840112610c3e57610c3d611359565b5b8235905067ffffffffffffffff811115610c5b57610c5a611354565b5b602083019150836001820283011115610c7757610c7661135e565b5b9250929050565b600082601f830112610c9357610c92611359565b5b8135610ca3848260208601610bb8565b91505092915050565b600081359050610cbb8161139a565b92915050565b600081519050610cd08161139a565b92915050565b60008060208385031215610ced57610cec61136d565b5b600083013567ffffffffffffffff811115610d0b57610d0a611368565b5b610d1785828601610c28565b92509250509250929050565b600060208284031215610d3957610d3861136d565b5b600082013567ffffffffffffffff811115610d5757610d56611368565b5b610d6384828501610c7e565b91505092915050565b600060208284031215610d8257610d8161136d565b5b6000610d9084828501610cac565b91505092915050565b600060208284031215610daf57610dae61136d565b5b6000610dbd84828501610cc1565b91505092915050565b60008060408385031215610ddd57610ddc61136d565b5b6000610deb85828601610cac565b925050602083013567ffffffffffffffff811115610e0c57610e0b611368565b5b610e1885828601610bfa565b9150509250929050565b610e2b8161111c565b82525050565b610e3a8161112e565b82525050565b610e498161113a565b82525050565b6000610e5a826110c1565b610e6481856110cc565b9350610e748185602086016111d4565b610e7d81611372565b840191505092915050565b610e91816111b3565b82525050565b6000610ea46000836110dd565b9150610eaf82611383565b600082019050919050565b610ec381611157565b82525050565b610ed281611185565b82525050565b610ee18161118f565b82525050565b610ef08161119f565b82525050565b6000610f0182610e97565b9150819050919050565b6000602082019050610f206000830184610e22565b92915050565b6000604082019050610f3b6000830185610e22565b610f486020830184610e22565b9392505050565b6000604082019050610f646000830185610e31565b8181036020830152610f768184610e4f565b90509392505050565b600060a082019050610f946000830188610e40565b610fa16020830187610ee7565b610fae6040830186610eba565b610fbb6060830185610ed8565b610fc86080830184610ed8565b9695505050505050565b6000602082019050610fe76000830184610e88565b92915050565b60006020820190506110026000830184610ec9565b92915050565b600060608201905061101d6000830186610ec9565b61102a6020830185610ec9565b6110376040830184610ec9565b949350505050565b600061104961105a565b90506110558282611207565b919050565b6000604051905090565b600067ffffffffffffffff82111561107f5761107e611325565b5b602082029050602081019050919050565b600067ffffffffffffffff8211156110ab576110aa611325565b5b6110b482611372565b9050602081019050919050565b600081519050919050565b600082825260208201905092915050565b600081905092915050565b60006110f382611185565b91506110fe83611185565b92508282101561111157611110611269565b5b828203905092915050565b600061112782611165565b9050919050565b60008115159050919050565b6000819050919050565b600081905061115282611386565b919050565b600061ffff82169050919050565b600073ffffffffffffffffffffffffffffffffffffffff82169050919050565b6000819050919050565b600063ffffffff82169050919050565b600067ffffffffffffffff82169050919050565b60006111be82611144565b9050919050565b82818337600083830152505050565b60005b838110156111f25780820151818401526020810190506111d7565b83811115611201576000848401525b50505050565b61121082611372565b810181811067ffffffffffffffff8211171561122f5761122e611325565b5b80604052505050565b600061124382611185565b915061124e83611185565b92508261125e5761125d611298565b5b828206905092915050565b7f4e487b7100000000000000000000000000000000000000000000000000000000600052601160045260246000fd5b7f4e487b7100000000000000000000000000000000000000000000000000000000600052601260045260246000fd5b7f4e487b7100000000000000000000000000000000000000000000000000000000600052602160045260246000fd5b7f4e487b7100000000000000000000000000000000000000000000000000000000600052603260045260246000fd5b7f4e487b7100000000000000000000000000000000000000000000000000000000600052604160045260246000fd5b600080fd5b600080fd5b600080fd5b600080fd5b600080fd5b600080fd5b6000601f19601f8301169050919050565b50565b60028110611397576113966112c7565b5b50565b6113a381611185565b81146113ae57600080fd5b5056fea26469706673582212206e3c38e908e0132acdcb885783531f043299e6ac4cf71dda64f3b59c081ff8eb64736f6c63430008070033",
  "linkReferences": {},
  "deployedLinkReferences": {}
}