{
  "_format": "hh-sol-artifact-1",
  "contractName": "Raffle",
  "sourceName": "contracts/Raffle.sol",
  "abi": [
    {
      "inputs": [
        {
          "internalType": "uint256",
          "name": "entranceFee",
          "type": "uint256"
        }
      ],
      "stateMutability": "nonpayable",
      "type": "constructor"
    },
    {
      "inputs": [],
      "name": "Raffle__NotEnoughETHEntered",
      "type": "error"
    },
    {
      "anonymous": false,
      "inputs": [
        {
          "indexed": true,
          "internalType": "address",
          "name": "player",
          "type": "address"
        }
      ],
      "name": "RaffleEnter",
      "type": "event"
    },
    {
      "inputs": [],
      "name": "enterRaffle",
      "outputs": [],
      "stateMutability": "payable",
      "type": "function"
    },
    {
      "inputs": [],
      "name": "getEntranceFee",
      "outputs": [
        {
          "internalType": "uint256",
          "name": "",
          "type": "uint256"
        }
      ],
      "stateMutability": "view",
      "type": "function"
    },
    {
      "inputs": [
        {
          "internalType": "uint256",
          "name": "index",
          "type": "uint256"
        }
      ],
      "name": "getPlayer",
      "outputs": [
        {
          "internalType": "address",
          "name": "",
          "type": "address"
        }
      ],
      "stateMutability": "view",
      "type": "function"
    },
    {
      "inputs": [],
      "name": "requestRandomWinner",
      "outputs": [],
      "stateMutability": "nonpayable",
      "type": "function"
    }
  ],
  "bytecode": "0x60a060405234801561001057600080fd5b5060405161045b38038061045b83398181016040528101906100329190610055565b8060808181525050506100a8565b60008151905061004f81610091565b92915050565b60006020828403121561006b5761006a61008c565b5b600061007984828501610040565b91505092915050565b6000819050919050565b600080fd5b61009a81610082565b81146100a557600080fd5b50565b6080516103936100c86000396000818160d1015260f701526103936000f3fe60806040526004361061003f5760003560e01c806309bc33a7146100445780632cfcc5391461006f578063522a1f0b14610079578063e55ae4e814610090575b600080fd5b34801561005057600080fd5b506100596100cd565b60405161006691906102bb565b60405180910390f35b6100776100f5565b005b34801561008557600080fd5b5061008e6101f7565b005b34801561009c57600080fd5b506100b760048036038101906100b29190610255565b6101f9565b6040516100c491906102a0565b60405180910390f35b60007f0000000000000000000000000000000000000000000000000000000000000000905090565b7f000000000000000000000000000000000000000000000000000000000000000034101561014f576040517fbd4e069500000000000000000000000000000000000000000000000000000000815260040160405180910390fd5b6000339080600181540180825580915050600190039060005260206000200160009091909190916101000a81548173ffffffffffffffffffffffffffffffffffffffff021916908373ffffffffffffffffffffffffffffffffffffffff1602179055503373ffffffffffffffffffffffffffffffffffffffff167f0805e1d667bddb8a95f0f09880cf94f403fb596ce79928d9f29b74203ba284d460405160405180910390a2565b565b600080828154811061020e5761020d610312565b5b9060005260206000200160009054906101000a900473ffffffffffffffffffffffffffffffffffffffff169050919050565b60008135905061024f81610346565b92915050565b60006020828403121561026b5761026a610341565b5b600061027984828501610240565b91505092915050565b61028b816102d6565b82525050565b61029a81610308565b82525050565b60006020820190506102b56000830184610282565b92915050565b60006020820190506102d06000830184610291565b92915050565b60006102e1826102e8565b9050919050565b600073ffffffffffffffffffffffffffffffffffffffff82169050919050565b6000819050919050565b7f4e487b7100000000000000000000000000000000000000000000000000000000600052603260045260246000fd5b600080fd5b61034f81610308565b811461035a57600080fd5b5056fea264697066735822122043794f7009a88ddf76de967d2d16f418e872abdd360c587f4dbc1c1dba02b61e64736f6c63430008070033",
  "linkReferences": {},
  "deployedLinkReferences": {}
}