{
  "_format": "hh-sol-artifact-1",
  "contractName": "Raffle",
  "sourceName": "contracts/Raffle.sol",
  "abi": [
    {
      "inputs": [
        {
          "internalType": "address",
          "name": "vrfCoordinatorV2",
          "type": "address"
        },
        {
          "internalType": "uint256",
          "name": "entranceFee",
          "type": "uint256"
        },
        {
          "internalType": "bytes32",
          "name": "gasLane",
          "type": "bytes32"
        },
        {
          "internalType": "uint64",
          "name": "subscriptionId",
          "type": "uint64"
        },
        {
          "internalType": "uint32",
          "name": "callbackGasLimit",
          "type": "uint32"
        },
        {
          "internalType": "uint256",
          "name": "interval",
          "type": "uint256"
        }
      ],
      "stateMutability": "nonpayable",
      "type": "constructor"
    },
    {
      "inputs": [
        {
          "internalType": "address",
          "name": "have",
          "type": "address"
        },
        {
          "internalType": "address",
          "name": "want",
          "type": "address"
        }
      ],
      "name": "OnlyCoordinatorCanFulfill",
      "type": "error"
    },
    {
      "inputs": [],
      "name": "Raffle__NotEnoughETHEntered",
      "type": "error"
    },
    {
      "inputs": [],
      "name": "Raffle__NotOpen",
      "type": "error"
    },
    {
      "inputs": [],
      "name": "Raffle__TransferFailed",
      "type": "error"
    },
    {
      "inputs": [
        {
          "internalType": "uint256",
          "name": "currentBalance",
          "type": "uint256"
        },
        {
          "internalType": "uint256",
          "name": "numPlayers",
          "type": "uint256"
        },
        {
          "internalType": "uint256",
          "name": "raffleState",
          "type": "uint256"
        }
      ],
      "name": "Raffle__UpkeepNotNeeded",
      "type": "error"
    },
    {
      "anonymous": false,
      "inputs": [
        {
          "indexed": true,
          "internalType": "address",
          "name": "player",
          "type": "address"
        }
      ],
      "name": "RaffleEnter",
      "type": "event"
    },
    {
      "anonymous": false,
      "inputs": [
        {
          "indexed": true,
          "internalType": "uint256",
          "name": "requestId",
          "type": "uint256"
        }
      ],
      "name": "RequestedRaffleWinner",
      "type": "event"
    },
    {
      "anonymous": false,
      "inputs": [
        {
          "indexed": true,
          "internalType": "address",
          "name": "winner",
          "type": "address"
        }
      ],
      "name": "WinnerPicked",
      "type": "event"
    },
    {
      "inputs": [
        {
          "internalType": "bytes",
          "name": "",
          "type": "bytes"
        }
      ],
      "name": "checkUpkeep",
      "outputs": [
        {
          "internalType": "bool",
          "name": "upkeepNeeded",
          "type": "bool"
        },
        {
          "internalType": "bytes",
          "name": "",
          "type": "bytes"
        }
      ],
      "stateMutability": "nonpayable",
      "type": "function"
    },
    {
      "inputs": [],
      "name": "enterRaffle",
      "outputs": [],
      "stateMutability": "payable",
      "type": "function"
    },
    {
      "inputs": [],
      "name": "getEntranceFee",
      "outputs": [
        {
          "internalType": "uint256",
          "name": "",
          "type": "uint256"
        }
      ],
      "stateMutability": "view",
      "type": "function"
    },
    {
      "inputs": [],
      "name": "getInterval",
      "outputs": [
        {
          "internalType": "uint256",
          "name": "",
          "type": "uint256"
        }
      ],
      "stateMutability": "view",
      "type": "function"
    },
    {
      "inputs": [],
      "name": "getLatestTimestamp",
      "outputs": [
        {
          "internalType": "uint256",
          "name": "",
          "type": "uint256"
        }
      ],
      "stateMutability": "view",
      "type": "function"
    },
    {
      "inputs": [],
      "name": "getNumWords",
      "outputs": [
        {
          "internalType": "uint256",
          "name": "",
          "type": "uint256"
        }
      ],
      "stateMutability": "pure",
      "type": "function"
    },
    {
      "inputs": [],
      "name": "getNumberOfPlayers",
      "outputs": [
        {
          "internalType": "uint256",
          "name": "",
          "type": "uint256"
        }
      ],
      "stateMutability": "view",
      "type": "function"
    },
    {
      "inputs": [
        {
          "internalType": "uint256",
          "name": "index",
          "type": "uint256"
        }
      ],
      "name": "getPlayer",
      "outputs": [
        {
          "internalType": "address",
          "name": "",
          "type": "address"
        }
      ],
      "stateMutability": "view",
      "type": "function"
    },
    {
      "inputs": [],
      "name": "getRaffleState",
      "outputs": [
        {
          "internalType": "enum Raffle.RaffleState",
          "name": "",
          "type": "uint8"
        }
      ],
      "stateMutability": "view",
      "type": "function"
    },
    {
      "inputs": [],
      "name": "getRecentWinner",
      "outputs": [
        {
          "internalType": "address",
          "name": "",
          "type": "address"
        }
      ],
      "stateMutability": "view",
      "type": "function"
    },
    {
      "inputs": [],
      "name": "getRequestConfirmations",
      "outputs": [
        {
          "internalType": "uint256",
          "name": "",
          "type": "uint256"
        }
      ],
      "stateMutability": "pure",
      "type": "function"
    },
    {
      "inputs": [
        {
          "internalType": "bytes",
          "name": "",
          "type": "bytes"
        }
      ],
      "name": "performUpkeep",
      "outputs": [],
      "stateMutability": "nonpayable",
      "type": "function"
    },
    {
      "inputs": [
        {
          "internalType": "uint256",
          "name": "requestId",
          "type": "uint256"
        },
        {
          "internalType": "uint256[]",
          "name": "randomWords",
          "type": "uint256[]"
        }
      ],
      "name": "rawFulfillRandomWords",
      "outputs": [],
      "stateMutability": "nonpayable",
      "type": "function"
    }
  ],
  "bytecode": "0x6101606040523480156200001257600080fd5b5060405162002b0038038062002b00833981810160405281019062000038919062000524565b858073ffffffffffffffffffffffffffffffffffffffff1660808173ffffffffffffffffffffffffffffffffffffffff1660601b8152505050620000a57f6ccddbe6b3ef2d0179eb83cf4d360b087902d536bfb58e12381d6dc5ccdf986d60001b620004ae60201b60201c565b620000d97f563ec91c0853f0fcf19ef939decd0aa800c2aac72958dad75bf3a59d8c9e0f3160001b620004ae60201b60201c565b6200010d7feb03ccffc272a515994ffe0bf2d8349d4c5aebf27ff5cbbce91ab2dd91df63e460001b620004ae60201b60201c565b8460a08181525050620001497f639d0bb65917daa4443668a704c122f7ef5edf8421c23f1d69e6e2535462c0da60001b620004ae60201b60201c565b6200017d7f7202390dcdc2d42d157c7d5a4a5931d4d35dcac6e65e71cd079e0f6e6705a85060001b620004ae60201b60201c565b8573ffffffffffffffffffffffffffffffffffffffff1660c08173ffffffffffffffffffffffffffffffffffffffff1660601b81525050620001e87ffc9dfa23c650e9b39824d1714ddf0a14842fea3a2cb9263b13f4be279be22a5260001b620004ae60201b60201c565b6200021c7f709f8ee3e861ab7a7fa32fe9b1af2cd2daff9010caef8af09f2c70b49938eec760001b620004ae60201b60201c565b8360e08181525050620002587fc5558566d54167c5c8d8763c7599f5593bd9b19102b781b60de5dc526e9bc87560001b620004ae60201b60201c565b6200028c7f199bc18b57aba8c60656b2812964884f8420b5c8606670229cdaf09ae01a837260001b620004ae60201b60201c565b8267ffffffffffffffff166101008167ffffffffffffffff1660c01b81525050620002e07fd7f68e56fe33dac0e5fc973820625ae830f5afccb9ea0e5d14efb83998a05cc660001b620004ae60201b60201c565b620003147fc6b4ef2de48aee7942aae79d95a10591144f788bc89967da28f1bdc7edc47b8060001b620004ae60201b60201c565b8163ffffffff166101208163ffffffff1660e01b81525050620003607fa49c00daca66a44493e03d9dc24681a2ffae90075cc8cf7395997bb13f30813860001b620004ae60201b60201c565b620003947f3a678ef427de8b3c6b2112d69c6fa68f54864aaf3a9055b449549e1f2307a70160001b620004ae60201b60201c565b6000600160146101000a81548160ff02191690836001811115620003bd57620003bc6200062c565b5b0217905550620003f67f60fa81679e51acb7801341157938fd40ed7cb8c9bad6e695b74455778a5afa0160001b620004ae60201b60201c565b6200042a7f682ee79df6640afccded4d64f4479cf96ac16fff94cbfca0bba817e34fbf3eb760001b620004ae60201b60201c565b42600281905550620004657fc428fc4e3e459f3d48aba207ef035b0ccc4ca7c84a5e1be2c17dfce51701ca1c60001b620004ae60201b60201c565b620004997f7c0756aa47342af51928aa1c37ccc5fbef5704a0370de8c2786cbc7083a9dc3660001b620004ae60201b60201c565b806101408181525050505050505050620006e2565b50565b600081519050620004c28162000660565b92915050565b600081519050620004d9816200067a565b92915050565b600081519050620004f08162000694565b92915050565b6000815190506200050781620006ae565b92915050565b6000815190506200051e81620006c8565b92915050565b60008060008060008060c087890312156200054457620005436200065b565b5b60006200055489828a01620004b1565b96505060206200056789828a01620004df565b95505060406200057a89828a01620004c8565b94505060606200058d89828a016200050d565b9350506080620005a089828a01620004f6565b92505060a0620005b389828a01620004df565b9150509295509295509295565b6000620005cd82620005de565b9050919050565b6000819050919050565b600073ffffffffffffffffffffffffffffffffffffffff82169050919050565b6000819050919050565b600063ffffffff82169050919050565b600067ffffffffffffffff82169050919050565b7f4e487b7100000000000000000000000000000000000000000000000000000000600052602160045260246000fd5b600080fd5b6200066b81620005c0565b81146200067757600080fd5b50565b6200068581620005d4565b81146200069157600080fd5b50565b6200069f81620005fe565b8114620006ab57600080fd5b50565b620006b98162000608565b8114620006c557600080fd5b50565b620006d38162000618565b8114620006df57600080fd5b50565b60805160601c60a05160c05160601c60e0516101005160c01c6101205160e01c610140516123a26200075e60003960008181611058015261125101526000610c4701526000610c2401526000610c0301526000610bc701526000818161037e015261058301526000818161043f015261049301526123a26000f3fe6080604052600436106100c25760003560e01c806353a2c19a1161007f57806391ad27b41161005957806391ad27b414610238578063e55ae4e814610263578063f43b52cb146102a0578063fd6673f5146102cb576100c2565b806353a2c19a146101a45780635f1b0fd8146101cf5780636e04ff0d146101fa576100c2565b806309bc33a7146100c7578063115cbaf5146100f25780631fe543e31461011d5780632cfcc539146101465780634585e33b14610150578063473f1ddc14610179575b600080fd5b3480156100d357600080fd5b506100dc6102f6565b6040516100e99190611fa8565b60405180910390f35b3480156100fe57600080fd5b506101076103a2565b6040516101149190611f8d565b60405180910390f35b34801561012957600080fd5b50610144600480360381019061013f9190611d81565b61043d565b005b61014e6104fd565b005b34801561015c57600080fd5b5061017760048036038101906101729190611c91565b610900565b005b34801561018557600080fd5b5061018e610d67565b60405161019b9190611ec6565b60405180910390f35b3480156101b057600080fd5b506101b9610e15565b6040516101c69190611fa8565b60405180910390f35b3480156101db57600080fd5b506101e4610ea8565b6040516101f19190611fa8565b60405180910390f35b34801561020657600080fd5b50610221600480360381019061021c9190611cde565b610f39565b60405161022f929190611f0a565b60405180910390f35b34801561024457600080fd5b5061024d6111c9565b60405161025a9190611fa8565b60405180910390f35b34801561026f57600080fd5b5061028a60048036038101906102859190611d27565b611275565b6040516102979190611ec6565b60405180910390f35b3480156102ac57600080fd5b506102b5611341565b6040516102c29190611fa8565b60405180910390f35b3480156102d757600080fd5b506102e06113cf565b6040516102ed9190611fa8565b60405180910390f35b60006103247f5ea4be8b2aaff5a146602e70a0d8ef6aac398361c3a94a4e28c9c38c721aae7e60001b611460565b6103507f0a4c681855d38b6a28233153e45397a418cdd2a5511c2b9c19371c0161e0650460001b611460565b61037c7f66a9a48457be69e505cba4331b94cd5f16a1e43ef326d87929420fcbc723abbf60001b611460565b7f0000000000000000000000000000000000000000000000000000000000000000905090565b60006103d07fa83ebac882852396dede69aaccbe1ff47fbbf1c72b6f94b3196edf9c69ae494360001b611460565b6103fc7f3211d14977b06d1ff6b3a34d98e1df315d78fddb9df07468ab81eb9d39b729af60001b611460565b6104287f2656102988b600ac33f1d8b000c81954433915d30b0e335e7bef17ee9c7c9ccc60001b611460565b600160149054906101000a900460ff16905090565b7f000000000000000000000000000000000000000000000000000000000000000073ffffffffffffffffffffffffffffffffffffffff163373ffffffffffffffffffffffffffffffffffffffff16146104ef57337f00000000000000000000000000000000000000000000000000000000000000006040517f1cf993f40000000000000000000000000000000000000000000000000000000081526004016104e6929190611ee1565b60405180910390fd5b6104f98282611463565b5050565b6105297fd850b30f2511e642c624027758a662d09b21d4641d140ba202cc44782166b49860001b611460565b6105557f46a70b5558450ee6fa56c1a7a29362247c8084b8cac57a93972dbd6ae8864a3160001b611460565b6105817fef665c8071b9669f101e516b9ff58c07d7b22a9672708fdc86f271b0aa0bbf4660001b611460565b7f0000000000000000000000000000000000000000000000000000000000000000341015610633576105d57f2186bacf2a65809411cd6714bf84b1bbce3c882f1ebf55dd943e52c59c731d7e60001b611460565b6106017f20a40ee8f796f926ced2ca449a585e192706852833ef8e5d8d1c9644b535465860001b611460565b6040517fbd4e069500000000000000000000000000000000000000000000000000000000815260040160405180910390fd5b61065f7ff59610c2b0b6d07a43bc2c512c78a5413c98b13e61802067b7a6084aeb3f011e60001b611460565b61068b7fe472f031c46f31bec903d366ef809b60fe6e28575e4998194ad9aa4a6cf553ba60001b611460565b6106b77f56182c469500e85c4990339e0e6024862bb280369f46b50e71c12b7b90b651f860001b611460565b600060018111156106cb576106ca612282565b5b600160149054906101000a900460ff1660018111156106ed576106ec612282565b5b1461077c5761071e7fd3ac107bf27de746580441fbe41e7ec04caccd7d98662e63d8510ca505008de760001b611460565b61074a7fb46203f095dea8c8b0717850c4fcec01dd73fc0a5a28cd68b4d6e96dfa14da5860001b611460565b6040517f1425571c00000000000000000000000000000000000000000000000000000000815260040160405180910390fd5b6107a87fcf44164dec327216b7ff62766baccb4b6373e847dd2b0353242883f43994984860001b611460565b6107d47f1fec2929e61975f384ce1cfbda3fe590746d821930d3eb078d2cc22472f8dc4460001b611460565b6108007f658d5f266a8f013fcdfbb5e7da230cfc8c3fd5567f0c3ab06c80248d9b3adce260001b611460565b6000339080600181540180825580915050600190039060005260206000200160009091909190916101000a81548173ffffffffffffffffffffffffffffffffffffffff021916908373ffffffffffffffffffffffffffffffffffffffff16021790555061088f7f8b0712aca15776b64c126c35c8f40f41c0837e72a38e59dd8d2ffdc5bb65460a60001b611460565b6108bb7fd60115d03b518d24846c9fd4b26bb212ea9ae133a8c920bdb71c30f547f1db9b60001b611460565b3373ffffffffffffffffffffffffffffffffffffffff167f0805e1d667bddb8a95f0f09880cf94f403fb596ce79928d9f29b74203ba284d460405160405180910390a2565b61092c7fde4218332ab2a762215f68889d2833526b936ec51a3f2ec615aaa481bd05223360001b611460565b6109587f292831e178ef4e804a8224cc6e5cdcabf7a1f5219c9852b93a5265e6fa17f3c760001b611460565b6109847f748370342457bb4ee4663f48af58f9d28bff1a8d964a263d3c380e9398e75af460001b611460565b600061099e60405180602001604052806000815250610f39565b5090506109cd7ff4a2d3e9ade4c001c3b43189d819bc4c1ca88c5bf977422d26f951ccd27d3c4b60001b611460565b6109f97f2dd81f14a6279d2fc26c98a6847b9f32e4ce8e84638fa0e570902d82ad0df39d60001b611460565b80610abd57610a2a7f31a19b39b3446179ee677136dc783ac442a5bfa76fbec7208d2f4b179aea667860001b611460565b610a567f17931dbaafa24ee714f14b60980579f831523c3d2660c1d77678bc2d5f9b0a5460001b611460565b47600080549050600160149054906101000a900460ff166001811115610a7f57610a7e612282565b5b6040517f584327aa000000000000000000000000000000000000000000000000000000008152600401610ab493929190611fc3565b60405180910390fd5b610ae97f611f924ad1fcd0ca8664041210a8a472cdc66a9de6ae7c18674d05c61d9c5ac660001b611460565b610b157fba7d3c852fc6d5229111e2e616a32a24620949201b42b0ba7a5c3f3113c320f560001b611460565b610b417fe330aa8c4806db74c84a8b9eed102247dd094eda57cef6c121dfc6cc1d53acbf60001b611460565b60018060146101000a81548160ff02191690836001811115610b6657610b65612282565b5b0217905550610b977f3910456f6496fceedb034499903d7485eed96e48c795ffd15dad1def6cd1007460001b611460565b610bc37f02c2ba57b74880a0b3f2f9f061bf1603f7c4e671793eeea7af5e19bee349261d60001b611460565b60007f000000000000000000000000000000000000000000000000000000000000000073ffffffffffffffffffffffffffffffffffffffff16635d3b1d307f00000000000000000000000000000000000000000000000000000000000000007f000000000000000000000000000000000000000000000000000000000000000060037f000000000000000000000000000000000000000000000000000000000000000060016040518663ffffffff1660e01b8152600401610c88959493929190611f3a565b602060405180830381600087803b158015610ca257600080fd5b505af1158015610cb6573d6000803e3d6000fd5b505050506040513d601f19601f82011682018060405250810190610cda9190611d54565b9050610d087fdf9105e95678b6201fbd0798ebc8d60759c3ba9644bcdc09ead4b96d7bc875ef60001b611460565b610d347fadef72d94d72005cdbd4f85a01d1a62b244f376c7fffc6d7989a0846b90aed3860001b611460565b807fcd6e45c8998311cab7e9d4385596cac867e20a0587194b954fa3a731c93ce78b60405160405180910390a250505050565b6000610d957fad7cbcf06aed5194cf8edd89a2e52cde05fea3936cc31dc6b616d7057235731a60001b611460565b610dc17f4163a27091516cfc627274ce1dc5ba73878b3f91ca6cca2067cae6255520360760001b611460565b610ded7fba95f06469ec8005357b2f8ecb4a95e0c0ca2a446ffa389174a2b737bb4b1b9a60001b611460565b600160009054906101000a900473ffffffffffffffffffffffffffffffffffffffff16905090565b6000610e437f449800976464a2cc0a5870a59d0bee7149a378798e4279e81b1bd92b885d185a60001b611460565b610e6f7fc4dfb52b6c09e50222f448adf49eb65171c9599ee699a716ae9666db2fcd310860001b611460565b610e9b7fc4d207bc5a35ea607c03aa8c89099baf3543c3383792ccb6800433188926f8f860001b611460565b600163ffffffff16905090565b6000610ed67f8c9b55610497123d624797ddd8fa5dd1e1de71c929923fdec8b5274a08a0938560001b611460565b610f027ff8f39c9cb2d003da771a260db1aac09311a14b9c9de89849d57a72d70a84e80760001b611460565b610f2e7f1c13c14dce09fb977be9f4bc2b74db9b1028fc75736b92a8a7e689ecf19df9f360001b611460565b600361ffff16905090565b60006060610f697f685dd9ebaacb3dd83f004bf527ae2487cc0e203a5cdd569ad6f4ea154471f63160001b611460565b610f957f349acc5cf10a02d4272d596809bdf8bb8ddc405cb2de655f661eaf83d42232f960001b611460565b610fc17fe000b20a0cce8351fdc2bd6f20ef7334929ba45f457341061b00effcca4f8e7860001b611460565b6000600160149054906101000a900460ff166001811115610fe557610fe4612282565b5b60006001811115610ff957610ff8612282565b5b1490506110287f6cf2b524ac6c09fbc7a45bc17f7dce55ed07141fefa3c1c6f91c2d0796df412760001b611460565b6110547f6296508547bd199fc9da32293493f602948c1f7d4b01a69d2e109397de21a42860001b611460565b60007f00000000000000000000000000000000000000000000000000000000000000006002544261108591906120a3565b1190506110b37e8fb2fecf6d1e5484bdfe47ea1752d043ea1617c46c869ebd3534f143c384a260001b611460565b6110df7fc329a5afd64f62527b117ddc39f32c0a949aaf79406bd4e2ac620be9e50659ed60001b611460565b6000806000805490501190506111177ff42dfbb3e771716432454d99f6e5ba42cba483da244520c20d8c9c42be070cf060001b611460565b6111437f66c677df2b2dee4bdaa7156c14ec842ab44916e4be5068eeec488deb1057726960001b611460565b600080471190506111767f84a9065e4bbe6aac49cc6b6162bfa53150a9066adba93ff0f190f562cf3ea50560001b611460565b6111a27f64ee70ba2367691a85431b30b6475d0ae4e20a698e48d2cc58f79ad2cb29d78c60001b611460565b8380156111ac5750825b80156111b55750815b80156111be5750805b955050505050915091565b60006111f77f7a640dedd04e3ab0b44d1081811d33e6e15136fafdb8198899c9072e2ac4ae3760001b611460565b6112237f088222a9c179b21734203eb4cb561555017ffd4479dae92e52724b4f84a59ed860001b611460565b61124f7faf22ddb9d81c8274fc507da442e653c3f00c53cb96e16985e2ad48d27b72bf5960001b611460565b7f0000000000000000000000000000000000000000000000000000000000000000905090565b60006112a37fe7855445579ce514072a14b8afe62baf8d01d38bf6dc62d3a0d353821ce037d660001b611460565b6112cf7fb488226d718ad8a0008ef3d665422146de3eac25fa18af3a7318ccc1cd336b8b60001b611460565b6112fb7fa455e7eae7e8f5739b431ff818b7b45c5ecc8828460905253d89ad18fa2c2fdf60001b611460565b6000828154811061130f5761130e6122b1565b5b9060005260206000200160009054906101000a900473ffffffffffffffffffffffffffffffffffffffff169050919050565b600061136f7fd9bb0f94429ce4079b097566c4511e41c2df0eac1122a491ecf988eba94b8e1560001b611460565b61139b7f29545e619de9bc0c75a83e3c39c9fdaab9807b3960f993fe8cff67426e09501c60001b611460565b6113c77f620e234b8b8efc55ffe78a8eba8477918ba940c801b12d19664280698e25586760001b611460565b600254905090565b60006113fd7f54e5c7557ed15b445c223ae6f8a69c3c56333bdba14fd689307de535a40703aa60001b611460565b6114297f2fd466284f9c9be85eb2a52f0586fa1553e3e48373a968add6bf50c0c2142bf760001b611460565b6114557fa793e33b6099cf620b497f5df013b5ec11b7c0ea08efb7b9a24210cb5dc63c6460001b611460565b600080549050905090565b50565b61148f7fcb3fbdfeee6acb614598ebce17659af84680897c21bfa3ac0bad6dc2a4cdabd560001b611460565b6114bb7f18ced440507468be29ddb8c7b1aabcc654e657a52a9aecce062ce74250cded5a60001b611460565b6114e77fdb12fbe3a925b0c99bd4166f5ee35e16090f94410bb36c97182c4e1d0b08c04260001b611460565b6000808054905082600081518110611502576115016122b1565b5b602002602001015161151491906121f3565b90506115427f358b3520d234057eb5c198b4f5d45c5539ffd291f96aab752420b02df90b48d860001b611460565b61156e7fe71d3fa3089aa1b1e631627f97fa026e1c7d167b1f9542f3233eae0f40fff4ac60001b611460565b6000808281548110611583576115826122b1565b5b9060005260206000200160009054906101000a900473ffffffffffffffffffffffffffffffffffffffff1690506115dc7fcd40d1ae33a95480653f8e595c022cd0cde3a5906b1cfbbf8a976834a8d58e3b60001b611460565b6116087f21f3e8b6ef5f3994ed81fc1165c7bad9de91697210402ce45de569aa8a3040aa60001b611460565b80600160006101000a81548173ffffffffffffffffffffffffffffffffffffffff021916908373ffffffffffffffffffffffffffffffffffffffff1602179055506116757f96da1cafea9447e43c3cb9286cb5e38c9cb2cb078a09d19ee6e00e5e4333cc4c60001b611460565b6116a17f85ba4bd297d24fa794c2851fc18a6d1ffd45ce007021d699b30d448cf56a530d60001b611460565b6000600160146101000a81548160ff021916908360018111156116c7576116c6612282565b5b02179055506116f87fa0278a00b294337dd0f6abfc4fba5c0e46253555bb01671f89467134266b503060001b611460565b6117247fc5e8aa3a48a5c5ed9214f695323469dac30a193bf044226c5ca844f1e1d070d660001b611460565b600067ffffffffffffffff81111561173f5761173e6122e0565b5b60405190808252806020026020018201604052801561176d5781602001602082028036833780820191505090505b5060009080519060200190611783929190611a5c565b506117b07f0873fa28ec555a44c2e1d45be0a27b03ec0d687bf435bd3650493536e55b231c60001b611460565b6117dc7ff54fee90426e133ed6e380f52e4e05dabfa628e78b0737a9ea881ab4cdef5d0460001b611460565b4260028190555061180f7fd0e59bc996aed465f25570c9e747156cddcbe8ed38755fc9da77807208a5b41260001b611460565b61183b7fc6cf24be9eea4b2bb8c569c71659e17b0d116560619ad77e98070d8c0e4d06bb60001b611460565b60008173ffffffffffffffffffffffffffffffffffffffff164760405161186190611eb1565b60006040518083038185875af1925050503d806000811461189e576040519150601f19603f3d011682016040523d82523d6000602084013e6118a3565b606091505b505090506118d37fd9772657aac419a293ecb1631656861b8f1fe87345543f8445e27a49d7fce2c160001b611460565b6118ff7fae5d9c0243db0bd361622b5f039b7a81ab43e7d3e2ec03fc1536cdcdf261661a60001b611460565b8061198e576119307f4e737b9f588f24c9c3442093ed1cc76ff7307d66cbc8a685dd3fb5916084318c60001b611460565b61195c7f22bc89574397a6ccba052d93803b496121509a336553d662f118e2c490333d7460001b611460565b6040517fa1d04b3900000000000000000000000000000000000000000000000000000000815260040160405180910390fd5b6119ba7fa65c20030c5302224016cec2813ad6e9698b73a39af295b3fea82d20232cd02260001b611460565b6119e67f906f5d7f5b63d987e76df123c177a9a55368e9409a82c590ed16bd509ac5be1660001b611460565b611a127f8c61013eb2849908f1416191e9deaa5f925186b6aac0a1f5b65292c2c0818c0060001b611460565b8173ffffffffffffffffffffffffffffffffffffffff167f5b690ec4a06fe979403046eaeea5b3ce38524683c3001f662c8b5a829632f7df60405160405180910390a25050505050565b828054828255906000526020600020908101928215611ad5579160200282015b82811115611ad45782518260006101000a81548173ffffffffffffffffffffffffffffffffffffffff021916908373ffffffffffffffffffffffffffffffffffffffff16021790555091602001919060010190611a7c565b5b509050611ae29190611ae6565b5090565b5b80821115611aff576000816000905550600101611ae7565b5090565b6000611b16611b118461201f565b611ffa565b90508083825260208201905082856020860282011115611b3957611b38612319565b5b60005b85811015611b695781611b4f8882611c67565b845260208401935060208301925050600181019050611b3c565b5050509392505050565b6000611b86611b818461204b565b611ffa565b905082815260208101848484011115611ba257611ba161231e565b5b611bad848285612180565b509392505050565b600082601f830112611bca57611bc9612314565b5b8135611bda848260208601611b03565b91505092915050565b60008083601f840112611bf957611bf8612314565b5b8235905067ffffffffffffffff811115611c1657611c1561230f565b5b602083019150836001820283011115611c3257611c31612319565b5b9250929050565b600082601f830112611c4e57611c4d612314565b5b8135611c5e848260208601611b73565b91505092915050565b600081359050611c7681612355565b92915050565b600081519050611c8b81612355565b92915050565b60008060208385031215611ca857611ca7612328565b5b600083013567ffffffffffffffff811115611cc657611cc5612323565b5b611cd285828601611be3565b92509250509250929050565b600060208284031215611cf457611cf3612328565b5b600082013567ffffffffffffffff811115611d1257611d11612323565b5b611d1e84828501611c39565b91505092915050565b600060208284031215611d3d57611d3c612328565b5b6000611d4b84828501611c67565b91505092915050565b600060208284031215611d6a57611d69612328565b5b6000611d7884828501611c7c565b91505092915050565b60008060408385031215611d9857611d97612328565b5b6000611da685828601611c67565b925050602083013567ffffffffffffffff811115611dc757611dc6612323565b5b611dd385828601611bb5565b9150509250929050565b611de6816120d7565b82525050565b611df5816120e9565b82525050565b611e04816120f5565b82525050565b6000611e158261207c565b611e1f8185612087565b9350611e2f81856020860161218f565b611e388161232d565b840191505092915050565b611e4c8161216e565b82525050565b6000611e5f600083612098565b9150611e6a8261233e565b600082019050919050565b611e7e81612112565b82525050565b611e8d81612140565b82525050565b611e9c8161214a565b82525050565b611eab8161215a565b82525050565b6000611ebc82611e52565b9150819050919050565b6000602082019050611edb6000830184611ddd565b92915050565b6000604082019050611ef66000830185611ddd565b611f036020830184611ddd565b9392505050565b6000604082019050611f1f6000830185611dec565b8181036020830152611f318184611e0a565b90509392505050565b600060a082019050611f4f6000830188611dfb565b611f5c6020830187611ea2565b611f696040830186611e75565b611f766060830185611e93565b611f836080830184611e93565b9695505050505050565b6000602082019050611fa26000830184611e43565b92915050565b6000602082019050611fbd6000830184611e84565b92915050565b6000606082019050611fd86000830186611e84565b611fe56020830185611e84565b611ff26040830184611e84565b949350505050565b6000612004612015565b905061201082826121c2565b919050565b6000604051905090565b600067ffffffffffffffff82111561203a576120396122e0565b5b602082029050602081019050919050565b600067ffffffffffffffff821115612066576120656122e0565b5b61206f8261232d565b9050602081019050919050565b600081519050919050565b600082825260208201905092915050565b600081905092915050565b60006120ae82612140565b91506120b983612140565b9250828210156120cc576120cb612224565b5b828203905092915050565b60006120e282612120565b9050919050565b60008115159050919050565b6000819050919050565b600081905061210d82612341565b919050565b600061ffff82169050919050565b600073ffffffffffffffffffffffffffffffffffffffff82169050919050565b6000819050919050565b600063ffffffff82169050919050565b600067ffffffffffffffff82169050919050565b6000612179826120ff565b9050919050565b82818337600083830152505050565b60005b838110156121ad578082015181840152602081019050612192565b838111156121bc576000848401525b50505050565b6121cb8261232d565b810181811067ffffffffffffffff821117156121ea576121e96122e0565b5b80604052505050565b60006121fe82612140565b915061220983612140565b92508261221957612218612253565b5b828206905092915050565b7f4e487b7100000000000000000000000000000000000000000000000000000000600052601160045260246000fd5b7f4e487b7100000000000000000000000000000000000000000000000000000000600052601260045260246000fd5b7f4e487b7100000000000000000000000000000000000000000000000000000000600052602160045260246000fd5b7f4e487b7100000000000000000000000000000000000000000000000000000000600052603260045260246000fd5b7f4e487b7100000000000000000000000000000000000000000000000000000000600052604160045260246000fd5b600080fd5b600080fd5b600080fd5b600080fd5b600080fd5b600080fd5b6000601f19601f8301169050919050565b50565b6002811061235257612351612282565b5b50565b61235e81612140565b811461236957600080fd5b5056fea26469706673582212205b314adc32ebd88bf2d67e0e70287bdac2d5a6db08f9bf245670e5162cb237f464736f6c63430008070033",
  "linkReferences": {},
  "deployedLinkReferences": {}
}